{
  "contractName": "Voting",
  "abi": [
    {
      "inputs": [],
      "stateMutability": "nonpayable",
      "type": "constructor"
    },
    {
      "inputs": [],
      "name": "admin",
      "outputs": [
        {
          "internalType": "address",
          "name": "",
          "type": "address"
        }
      ],
      "stateMutability": "view",
      "type": "function"
    },
    {
      "inputs": [
        {
          "internalType": "bytes32",
          "name": "",
          "type": "bytes32"
        }
      ],
      "name": "hasVoted",
      "outputs": [
        {
          "internalType": "bool",
          "name": "",
          "type": "bool"
        }
      ],
      "stateMutability": "view",
      "type": "function"
    },
    {
      "inputs": [
        {
          "internalType": "uint256",
          "name": "",
          "type": "uint256"
        }
      ],
      "name": "votes",
      "outputs": [
        {
          "internalType": "bytes32",
          "name": "encryptedVote",
          "type": "bytes32"
        },
        {
          "internalType": "bytes32",
          "name": "cryptographicKey",
          "type": "bytes32"
        }
      ],
      "stateMutability": "view",
      "type": "function"
    },
    {
      "inputs": [
        {
          "internalType": "bytes32",
          "name": "_encryptedVote",
          "type": "bytes32"
        },
        {
          "internalType": "bytes32",
          "name": "_cryptographicKey",
          "type": "bytes32"
        }
      ],
      "name": "castVote",
      "outputs": [],
      "stateMutability": "nonpayable",
      "type": "function"
    },
    {
      "inputs": [],
      "name": "getVoteCount",
      "outputs": [
        {
          "internalType": "uint256",
          "name": "",
          "type": "uint256"
        }
      ],
      "stateMutability": "view",
      "type": "function"
    }
  ],
  "bytecode": "0x608060405234801561000f575f80fd5b50335f806101000a81548173ffffffffffffffffffffffffffffffffffffffff021916908373ffffffffffffffffffffffffffffffffffffffff1602179055506104fd8061005c5f395ff3fe608060405234801561000f575f80fd5b5060043610610055575f3560e01c80631b4613cb146100595780635df81330146100895780636721d18d146100ba578063e7b3387c146100d6578063f851a440146100f4575b5f80fd5b610073600480360381019061006e919061029f565b610112565b60405161008091906102e4565b60405180910390f35b6100a3600480360381019061009e9190610330565b61012f565b6040516100b192919061036a565b60405180910390f35b6100d460048036038101906100cf9190610391565b61015e565b005b6100de610239565b6040516100eb91906103de565b60405180910390f35b6100fc610245565b6040516101099190610436565b60405180910390f35b6001602052805f5260405f205f915054906101000a900460ff1681565b6002818154811061013e575f80fd5b905f5260205f2090600202015f91509050805f0154908060010154905082565b60015f8281526020019081526020015f205f9054906101000a900460ff16156101bc576040517f08c379a00000000000000000000000000000000000000000000000000000000081526004016101b3906104a9565b60405180910390fd5b6002604051806040016040528084815260200183815250908060018154018082558091505060019003905f5260205f2090600202015f909190919091505f820151815f01556020820151816001015550506001805f8381526020019081526020015f205f6101000a81548160ff0219169083151502179055505050565b5f600280549050905090565b5f8054906101000a900473ffffffffffffffffffffffffffffffffffffffff1681565b5f80fd5b5f819050919050565b61027e8161026c565b8114610288575f80fd5b50565b5f8135905061029981610275565b92915050565b5f602082840312156102b4576102b3610268565b5b5f6102c18482850161028b565b91505092915050565b5f8115159050919050565b6102de816102ca565b82525050565b5f6020820190506102f75f8301846102d5565b92915050565b5f819050919050565b61030f816102fd565b8114610319575f80fd5b50565b5f8135905061032a81610306565b92915050565b5f6020828403121561034557610344610268565b5b5f6103528482850161031c565b91505092915050565b6103648161026c565b82525050565b5f60408201905061037d5f83018561035b565b61038a602083018461035b565b9392505050565b5f80604083850312156103a7576103a6610268565b5b5f6103b48582860161028b565b92505060206103c58582860161028b565b9150509250929050565b6103d8816102fd565b82525050565b5f6020820190506103f15f8301846103cf565b92915050565b5f73ffffffffffffffffffffffffffffffffffffffff82169050919050565b5f610420826103f7565b9050919050565b61043081610416565b82525050565b5f6020820190506104495f830184610427565b92915050565b5f82825260208201905092915050565b7f566f7465722068617320616c726561647920766f7465640000000000000000005f82015250565b5f61049360178361044f565b915061049e8261045f565b602082019050919050565b5f6020820190508181035f8301526104c081610487565b905091905056fea26469706673582212207966378eb264d5d40c45072568b0d2bc5c53339868968b0e100b2ddfbf548b6364736f6c63430008150033",
  "immutableReferences": {},
  "source": "// SPDX-License-Identifier: MIT\r\npragma solidity ^0.8.0;\r\n\r\ncontract Voting {\r\n    struct Vote {\r\n        bytes32 encryptedVote; // Encrypted vote data\r\n        bytes32 cryptographicKey; // Hash of NIC + Fingerprint\r\n    }\r\n\r\n    address public admin;\r\n    mapping(bytes32 => bool) public hasVoted; // Prevents double voting\r\n    Vote[] public votes; // Array to store all votes\r\n\r\n    constructor() {\r\n        admin = msg.sender; // Contract deployer is the admin\r\n    }\r\n\r\n    modifier onlyAdmin() {\r\n        require(msg.sender == admin, \"Only admin can perform this action\");\r\n        _;\r\n    }\r\n\r\n    function castVote(bytes32 _encryptedVote, bytes32 _cryptographicKey) public {\r\n        require(!hasVoted[_cryptographicKey], \"Voter has already voted\");\r\n        votes.push(Vote(_encryptedVote, _cryptographicKey));\r\n        hasVoted[_cryptographicKey] = true;\r\n    }\r\n\r\n    function getVoteCount() public view returns (uint) {\r\n        return votes.length;\r\n    }\r\n}\r\n",
  "sourcePath": "G:\\FYP_E_voting_system\\blockchain\\contracts\\Voting.sol",
  "compiler": {
    "name": "solc",
    "version": "0.8.21+commit.d9974bed.Emscripten.clang"
  },
  "schemaVersion": "3.4.16",
  "updatedAt": "2025-02-04T06:00:47.071Z",
  "devdoc": {
    "kind": "dev",
    "methods": {},
    "version": 1
  },
  "userdoc": {
    "kind": "user",
    "methods": {},
    "version": 1
  }
}