{
  "contractName": "VoteStorage",
  "abi": [
    {
      "inputs": [],
      "stateMutability": "nonpayable",
      "type": "constructor"
    },
    {
      "anonymous": false,
      "inputs": [
        {
          "indexed": false,
          "internalType": "bytes32",
          "name": "cryptographicKey",
          "type": "bytes32"
        },
        {
          "indexed": false,
          "internalType": "bytes32",
          "name": "encryptedData",
          "type": "bytes32"
        },
        {
          "indexed": false,
          "internalType": "bytes32",
          "name": "Decodekey",
          "type": "bytes32"
        }
      ],
      "name": "VoteAdded",
      "type": "event"
    },
    {
      "inputs": [],
      "name": "owner",
      "outputs": [
        {
          "internalType": "address",
          "name": "",
          "type": "address"
        }
      ],
      "stateMutability": "view",
      "type": "function",
      "constant": true
    },
    {
      "inputs": [
        {
          "internalType": "uint256",
          "name": "",
          "type": "uint256"
        }
      ],
      "name": "votes",
      "outputs": [
        {
          "internalType": "bytes32",
          "name": "cryptographicKey",
          "type": "bytes32"
        },
        {
          "internalType": "bytes32",
          "name": "encryptedData",
          "type": "bytes32"
        },
        {
          "internalType": "bytes32",
          "name": "Decodekey",
          "type": "bytes32"
        }
      ],
      "stateMutability": "view",
      "type": "function",
      "constant": true
    },
    {
      "inputs": [
        {
          "internalType": "bytes32",
          "name": "_cryptographicKey",
          "type": "bytes32"
        },
        {
          "internalType": "bytes32",
          "name": "_encryptedData",
          "type": "bytes32"
        },
        {
          "internalType": "bytes32",
          "name": "_Decodekey",
          "type": "bytes32"
        }
      ],
      "name": "addVote",
      "outputs": [],
      "stateMutability": "nonpayable",
      "type": "function"
    },
    {
      "inputs": [],
      "name": "getVoteCount",
      "outputs": [
        {
          "internalType": "uint256",
          "name": "",
          "type": "uint256"
        }
      ],
      "stateMutability": "view",
      "type": "function",
      "constant": true
    }
  ],
  "bytecode": "0x608060405234801561001057600080fd5b5033600160006101000a81548173ffffffffffffffffffffffffffffffffffffffff021916908373ffffffffffffffffffffffffffffffffffffffff1602179055506103d3806100616000396000f3fe608060405234801561001057600080fd5b506004361061004c5760003560e01c80634a4ec7f3146100515780635df813301461006d5780638da5cb5b1461009f578063e7b3387c146100bd575b600080fd5b61006b60048036038101906100669190610217565b6100db565b005b61008760048036038101906100829190610266565b610181565b604051610096939291906102d7565b60405180910390f35b6100a76101bb565b6040516100b491906102bc565b60405180910390f35b6100c56101e1565b6040516100d2919061030e565b60405180910390f35b6000604051806060016040528085815260200184815260200183815250908060018154018082558091505060019003906000526020600020906003020160009091909190915060008201518160000155602082015181600101556040820151816002015550507f5e955dbd1c4b11d7a1d16d40f87253b32b9184d2c2e53c435c34704447d454c8838383604051610174939291906102d7565b60405180910390a1505050565b6000818154811061019157600080fd5b90600052602060002090600302016000915090508060000154908060010154908060020154905083565b600160009054906101000a900473ffffffffffffffffffffffffffffffffffffffff1681565b60008080549050905090565b6000813590506101fc8161036f565b92915050565b60008135905061021181610386565b92915050565b60008060006060848603121561022c57600080fd5b600061023a868287016101ed565b935050602061024b868287016101ed565b925050604061025c868287016101ed565b9150509250925092565b60006020828403121561027857600080fd5b600061028684828501610202565b91505092915050565b61029881610329565b82525050565b6102a78161033b565b82525050565b6102b681610365565b82525050565b60006020820190506102d1600083018461028f565b92915050565b60006060820190506102ec600083018661029e565b6102f9602083018561029e565b610306604083018461029e565b949350505050565b600060208201905061032360008301846102ad565b92915050565b600061033482610345565b9050919050565b6000819050919050565b600073ffffffffffffffffffffffffffffffffffffffff82169050919050565b6000819050919050565b6103788161033b565b811461038357600080fd5b50565b61038f81610365565b811461039a57600080fd5b5056fea26469706673582212203545b2c83819e3e2380994134ecb248e7a435603d15547bc868eee603196fc4964736f6c63430008000033",
  "immutableReferences": {},
  "source": "// SPDX-License-Identifier: MIT\r\npragma solidity ^0.8.0;\r\n\r\ncontract VoteStorage {\r\n    // Define Vote structure\r\n    struct Vote {\r\n        bytes32 cryptographicKey;\r\n        bytes32 encryptedData;\r\n        bytes32 Decodekey;\r\n    }\r\n\r\n    Vote[] public votes;\r\n    address public owner;\r\n\r\n    // Event to log new votes\r\n    event VoteAdded(\r\n        bytes32 cryptographicKey, \r\n        bytes32 encryptedData,\r\n        bytes32 Decodekey\r\n    );\r\n\r\n    constructor() {\r\n        owner = msg.sender;\r\n    }\r\n\r\n    // Add a vote with cryptographicKey, encryptedData, and Decodekey\r\n    function addVote(bytes32 _cryptographicKey, bytes32 _encryptedData, bytes32 _Decodekey) external {\r\n        votes.push(Vote(_cryptographicKey, _encryptedData, _Decodekey));\r\n        emit VoteAdded(_cryptographicKey, _encryptedData, _Decodekey);\r\n    }\r\n\r\n    // Get total votes\r\n    function getVoteCount() external view returns (uint256) {\r\n        return votes.length;\r\n    }\r\n}\r\n",
  "sourcePath": "E:\\Dinindu\\temp-repo\\phase2-blockchain\\contracts\\VoteStorage.sol",
  "compiler": {
    "name": "solc",
    "version": "0.8.0+commit.c7dfd78e.Emscripten.clang"
  },
  "schemaVersion": "3.4.16",
  "updatedAt": "2025-04-13T06:37:08.760Z",
  "networkType": "ethereum",
  "devdoc": {
    "kind": "dev",
    "methods": {},
    "version": 1
  },
  "userdoc": {
    "kind": "user",
    "methods": {},
    "version": 1
  }
}